:020000040800F2
:10000000E0370020C5010008250B000801080008A2
:10001000210B000883070008651600080000000097
:10002000000000000000000000000000691300084C
:10003000A907000800000000F5120008D11300080D
:10004000DF010008DF010008DF010008DF01000810
:10005000DF010008DF010008AD070008DF0100082C
:10006000DF010008DF010008DF010008DF010008F0
:10007000DF010008DF010008DF010008DF010008E0
:10008000DF010008DF010008DF010008DF010008D0
:10009000DF010008DF010008DF010008DF010008C0
:1000A000DF010008DF010008DF010008DF010008B0
:1000B000DF010008A1140008DF010008DF010008CB
:1000C000DF010008DF010008DF010008DF01000890
:1000D000DF0100089D150008DF0100080116000877
:1000E000DF010008DF010008DF010008DF01000870
:1000F000DF010008DF010008DF010008DF01000860
:10010000DF010008DF010008DF010008DF0100084F
:10011000DF010008DF010008ED140008DF0100081E
:10012000DF010008DF01000889070008DF0100087F
:10013000DF010008DF010008DF010008DF0100081F
:10014000DF010008DF010008DF010008DF0100080F
:10015000DF010008DF010008DF010008DF010008FF
:10016000DF010008DF010008DF010008DF010008EF
:10017000DF010008DF010008DF01000800000000C7
:10018000DF010008DF01000839150008DF01000861
:10019000DF010008DF010008DF01000800000000A7
:1001A000DF010008DF010008DF010008DFF810D0E0
:1001B00000F0AAFA0048004731220008AFF300809F
:1001C000E03700200648804706480047FEE7FEE784
:1001D000FEE7FEE7FEE7FEE7FEE7FEE7FEE7FEE7F7
:1001E000D9130008AD010008D2B201E000F8012BDC
:1001F000491EFBD270470022F6E710B513460A46A7
:1002000004461946FFF7F0FF204610BD2DE9FE4FCA
:10021000804681EA0300C00F0C46009021F00041A7
:1002200023F00045B8EB0200A94105D24046214623
:1002300090461C460B46024623F00040104347D030
:10024000270DC7F30A00C3F30A510290401A019028
:1002500040286BDAC3F3130040F4801B00989246E9
:1002600020B10023D2EB030A63EB0B0B0198594634
:10027000C0F14002504600F0A0F906460D46504637
:100280005946019A00F0B8F910EB080061410024CA
:1002900087EA115284EAE7731A4340D0009A62B3A6
:1002A000019A012A4FEA075215DC001B61EB02019B
:1002B0004FF0004202EA0752CDE90042001C41F52E
:1002C000801132462B4600F0B8F903B0BDE8F08F3C
:1002D00040462146F9E7001B61EB0201001C41F595
:1002E000801300185B412018A2F5001747EB0301AB
:1002F00040EAD570B6196D4111E06D084FEA360637
:1003000045EAC0754FEA0752001B61EB0201001C71
:1003100041F5801149084FEA300000195141324639
:100320002B4603B0BDE8F04F00F078B900980122E9
:1003300040000023D0EB020263EBE07300982146FB
:100340004FEAE074B8EB000061EB0401E9E783F0E9
:1003500000435BE781F0004158E72DE9FE4F81EA59
:10036000030404F0004421F0004100944FF0000B1E
:1003700023F0004350EA01045ED052EA03045BD04C
:10038000C3F30A54C1F30A552C44A4F2F334019484
:10039000A0FB0254C1F3130141F48011C3F3130312
:1003A00043F4801301FB024400FB034E840A970AC6
:1003B00044EA815447EA8357A4FB076802958D0AF3
:1003C00005FB07854FEA932C04FB0C542705029D7F
:1003D0004FEA065847EA1637B5EB08056EEB070CEF
:1003E000870E920E47EA811742EA8312A7FB0201A9
:1003F000B6EB0B0164EB00042B0D43EA0C335E18E3
:1004000044EB1C50DA465146E7FB0201C5F31304E6
:100410004FEA0B3343EA14534FEA0432019C43EA98
:100420000603A4F10C040294009CCDE900B400F092
:1004300004F903B0BDE8F08F00200146F9E72DE98B
:10044000F04D81EA030404F0004B21F0004514460E
:100450004FF0000A23F0004150EA050220D054EA90
:1004600001021DD0C5F30A570246C5F31303C1F3B9
:100470001300C1F30A5640F4801543F48013A7EB30
:100480000608101BD64608F2FD3873EB050002D3B0
:1004900008F1010801E092185B41B8F1000F03DA9E
:1004A00000200146BDE8F08D00204FF48011064683
:1004B00084460EE0171B73EB050705D3121B63EB95
:1004C000050306434CEA010C49084FEA3000921834
:1004D0005B4150EA0107EDD152EA030012D082EAF3
:1004E000040083EA0501084305D0101BAB4106D286
:1004F0000122002306E000224FF0004302E06FF0EB
:10050000010253101AEB06004CEB085110EB0A00E5
:1005100041EB0B01BDE8F04D00F080B80EB540F2A4
:10052000334102910021CDE900110A460B4600F04B
:1005300084F803B000BDC1F30A5210B5C1F3130132
:1005400040F2FF3341F480119A4201DA002010BDDD
:1005500040F233439A42A2F2334203DC524200F0AB
:100560003BF810BD904010BD00F0004230F000405C
:100570000AD0C10D01F56071C0F3160042EA0151C5
:10058000C20840071143704700200146704730B54C
:100590000B46014600202022012409E021FA02F541
:1005A0009D4205D303FA02F5491B04FA02F52844DB
:1005B000151EA2F10102F1DC30BD202A04DB203A35
:1005C00000FA02F1002070479140C2F1200320FAA6
:1005D00003F3194390407047202A04DB203A21FAA4
:1005E00002F00021704721FA02F3D040C2F120024C
:1005F0009140084319467047202A06DBCB17203A62
:1006000041FA02F043EAE07306E041FA02F3D04017
:10061000C2F12002914008431946704710B5141EDC
:1006200073F1000408DA401C41F1000192185B41AB
:100630001A4301D120F0010010BD2DE9F04D924682
:100640009B4611B1B1FA81F202E0B0FA80F2203299
:100650009046FFF7B2FF04460F4640EA0A0041EA1F
:100660000B0153465A46084313D0114653EA010082
:1006700019D0C8F140025046FFF7AEFF05460E46BE
:10068000504659464246FFF798FF084305D00120DF
:1006900004E020463946BDE8F08D0020054346EAD7
:1006A000E0762C4337430A986305E40AA0EB080080
:1006B0000022FD0A44EA47540A3002D500200146D0
:1006C000E9E7010510196941DDE9084500196941AB
:1006D000BDE8F04DA2E7000030B5041E71F1000442
:1006E00004DB4FF00044404264EB0101141E73F13F
:1006F000000405DB1C464FF00043524263EB040349
:10070000994208BF904230BD064C074D06E0E068B4
:1007100040F0010394E8070098471034AC42F6D348
:10072000FFF748FD78370B0898370B0870B58C1821
:1007300010F8015B15F0070301D110F8013B2A11F5
:1007400006D110F8012B03E010F8016B01F8016BE2
:100750005B1EF9D12B0705D40023521E0DD401F8DE
:10076000013BFAE710F8013BCB1A921C03E013F8A7
:10077000015B01F8015B521EF9D5A142D8D30020DC
:1007800070BD00BFFEE7000010B520220221054821
:1007900001F011FA012804D120220221014801F0C0
:1007A000EBF910BD006402407047000010B5012055
:1007B00001F00AFB01280FD10121084801F06AFB72
:1007C000012803D106A000F04FFF02E008A000F0CE
:1007D0004BFF012001F0F2FA10BD000000000240C2
:1007E0006B6579207072657373210D0A000000003B
:1007F0006B65792072656C65617365210D0A000077
:1008000000BFFEE770B500250A2400224FF4807176
:100810001E4801F03AFB012251021C4801F035FB51
:100820004FF4007301220021184801F03BFB052022
:1008300001F08CF901221102144801F026FB052079
:1008400001F084F904E0601EC4B2052001F07EF9D5
:100850004FF400710D4801F01DFB012801D1002C5F
:10086000F1D1002C03DC00F07DF8012070BD0022E6
:100870004FF48071054801F008FB4FF4007301222A
:100880001146024801F00EFB2846EFE70004024043
:1008900010B504464FF4007301221146194801F0C7
:1008A00001FB00224FF48071164801F0EEFA00229D
:1008B0004FF40071134801F0E8FA052001F046F901
:1008C00034B900224FF400710E4801F0DEFA04E062
:1008D000012251020B4801F0D8FA01221102094805
:1008E00001F0D3FA052001F031F900224FF48071B4
:1008F000044801F0CAFA01225102024801F0C5FA87
:1009000010BD00000004024010B54FF40073012236
:100910001146134801F0C6FA01225102104801F0B5
:10092000B4FA052001F012F9012211020C4801F07D
:10093000ACFA052001F00AF900224FF400710848D2
:1009400001F0A3FA052001F001F900224FF48071B3
:10095000034801F09AFA052001F0F8F810BD0000F4
:100960000004024010B54FF40073012211461048F4
:1009700001F098FA00224FF480710D4801F085FAD9
:1009800000224FF400710A4801F07FFA012211029F
:10099000074801F07AFA052001F0D8F80122510247
:1009A000034801F072FA052001F0D0F810BD0000F4
:1009B000000402402DE9F04107460C4615461E464C
:1009C0002A2000F06FF8384600F04CF8284600F076
:1009D00049F82B2000F066F8204600F043F8304636
:1009E00000F040F82C2000F05DF8BDE8F08170B513
:1009F0000646EF231A4600210846FFF7DBFF0024D6
:100A000008E0002503E0304600F02CF86D1CF02DC6
:100A1000F9D3641CF02CF4D370BD2DE9F0470546E2
:100A20000E4617469846DDF8209043463A46314632
:100A30002846FFF7BFFF00240BE0012101EB440132
:100A400019F8010000F020F819F8140000F01CF863
:100A5000641C781BA8EB06014843A042EDD8BDE812
:100A6000F087000010B5044601228021054801F0FE
:100A70000CFAC4F3072000F023F8E0B200F020F8ED
:100A800010BD00000004024010B504460122802180
:100A9000034801F0FAF9204600F012F810BD0000FA
:100AA0000004024010B5044600228021034801F0F2
:100AB000ECF9204600F004F810BD000000040240EC
:100AC00070B5044600224021144801F0DEF90025EB
:100AD0001BE000220821114801F0D7F904F0800042
:100AE00028B1012220210D4801F0CFF904E00022B5
:100AF00020210A4801F0C9F901220821074801F024
:100B0000C4F96006040E681CC5B2082DE1DB0122A1
:100B10004021024801F0B9F970BD00000004024014
:100B200000BFFEE77047000010B5002807DA0A078B
:100B3000140E054A00F00F031B1FD45403E00A07EC
:100B4000130E024A135410BD18ED00E000E400E05B
:100B500010B540F6014002F077F940F6014002F08E
:100B600073F94FF48073012211460C4801F09AF991
:100B70004FF4807302220121084801F0BAF94FF4C2
:100B8000007301221146054801F08CF94FF40073FF
:100B900002220121014801F0ACF910BD000402401D
:100BA00070B52DED088BB0EE408A04460025FFF7A6
:100BB000CFFF0021084600F09FF8B0EE480A00F091
:100BC000B3F82046FFF7AAFC41EC1B0B9FED340B5A
:100BD00053EC102BFFF7C1FB41EC1A0B9FED320BCE
:100BE00053EC102BFFF712FB41EC190BFFF7A3FCA2
:100BF00005462A460021084600F00CF92A46002145
:100C0000012000F007F92A460021022000F002F935
:100C10002A460021032000F0FDF82A460021042086
:100C200000F0F8F82A460021052000F0F3F82A46E3
:100C30000021062000F0EEF82A460021072000F0EF
:100C4000E9F82A460021082000F0E4F82A460021AD
:100C5000092000F0DFF82A4600210A2000F0DAF827
:100C60002A4600210B2000F0D5F82A4600210C204E
:100C700000F0D0F82A4600210D2000F0CBF82A46DB
:100C800000210E2000F0C6F82A4600210F2000F0B7
:100C9000C1F8642000F04CFFBDEC088B70BD000073
:100CA000333333333333034000000000002062400D
:100CB00070B50446FFF728FE802000F057FBFFF7D1
:100CC000A1FD204600F052FBFFF79CFDFFF74AFE16
:100CD0000A2000F03BFFFFF717FE812000F046FBE3
:100CE000FFF790FD00F008FB05460120FFF7D0FD5F
:100CF000FFF738FE284670BD70B505460C46FFF775
:100D000003FE802000F032FBFFF77CFD284600F058
:100D10002DFBFFF777FD204600F028FBFFF772FD63
:100D2000FFF720FE70BD000070B52DED088BB0EE12
:100D3000409A9FED300BB0EE408AF0EE608A9FED56
:100D40002F0B53EC102B51EC180BFFF778FB41ECF9
:100D5000180B19EE100AFFF707FC41EC1A0B53ECC5
:100D60001A2B51EC180BFFF76AFB41EC180B9FEDA7
:100D7000250B53EC102B51EC180BFFF7E8FA41EC64
:100D8000180B9FED220B53EC102B51EC180BFFF7B7
:100D90003DFA41EC1B0BB0EE4B0AF0EE6B0A00F093
:100DA00073FCB0EE40AAF0EE60AA51EC1A0BFFF70C
:100DB000C2FBC6B20020FFF77BFF044604F07F00B1
:100DC00040F0100529460020FFF796FF3146FE202F
:100DD000FFF792FF21460020FFF78EFF052000F06D
:100DE000A7FE44F0A1010020FFF786FFBDEC088BB1
:100DF00070BD00000000000084D7774100000000B3
:100E00000000B040000000000000F03F00000000C3
:100E10000000E03F70B506460C461546FFF774FD2E
:100E2000802000F0A3FAFFF7EDFCB100891DC8B2E5
:100E300000F09CFAFFF7E6FCE0B200F097FAFFF74B
:100E4000E1FCC4F3072000F091FAFFF7DBFCE8B205
:100E500000F08CFAFFF7D6FCC5F3072000F086FA05
:100E6000FFF7D0FCFFF77EFD70BD00000146014892
:100E7000405C7047D0330020002004E00021034A8A
:100E80001154411CC8B20928F8DB7047D033002048
:100E900038B5044601200090002020494870012008
:100EA000009036E0BDF80000204008B1012000E0CD
:100EB000002002464FF40051194800F0E6FF0122DD
:100EC000D102174800F0E1FF322000F03FFE00227F
:100ED0004FF40061124800F0D8FF322000F036FED7
:100EE0000122D1020E4800F0D0FF4FF480410C489F
:100EF00000F0D0FF30B109484078BDF80010084339
:100F000006494870BDF800004FF6FF7101EA400045
:100F10000090BDF80000FF28C4DD38BDD0330020AC
:100F20000018024070B500240025FFF7A5FF00F06F
:100F3000CFF80D48C0780C49097940EA012500BF77
:100F40000DE00A4810F81400401E012101FA00F0DB
:100F5000284010B9601CC0B270BD601CC4B2102C17
:100F6000EFDB0020F8E70000D0330020AA030020C8
:100F700010B500224FF48061144800F086FF102065
:100F800000F0E4FD0120FFF783FF4320FFF780FF1F
:100F90000020FFF77DFF0120FFF77AFF0020FFF719
:100FA00077FF0020FFF774FF0020FFF771FF00209C
:100FB000FFF76EFF0020FFF76BFF0122910203484D
:100FC00000F063FF102000F0C1FD10BD00180240CA
:100FD00010B500224FF48061144800F056FF102035
:100FE00000F0B4FD0120FFF753FF4320FFF750FF4F
:100FF0000020FFF74DFF0020FFF74AFF5A20FFF7C0
:1010000047FF5A20FFF744FF5A20FFF741FF5A20BD
:10101000FFF73EFF5A20FFF73BFF012291020348F2
:1010200000F033FF102000F091FD10BD00180240C9
:1010300010B540F6064001F007FF40F6064001F00B
:1010400003FF40F6064001F0FFFE40F6064001F0C7
:10105000FBFE4FF40063012211461C4800F022FF02
:101060004FF4006302220021184800F042FF0122E1
:10107000D102164800F009FF4FF4804302220021FC
:10108000124800F00FFF4FF40053012211460F48A1
:1010900000F008FF4FF40053022200210B4800F03B
:1010A00028FF4FF4806301221146084800F0FAFE41
:1010B0004FF4806302220021044800F01AFF01224D
:1010C0009102024800F0E1FE10BD0000001802404D
:1010D0001CB5002001900120009000240022810214
:1010E0002A4800F0D2FE2A490878FFF7D1FE2849A5
:1010F0004878FFF7CDFE022001903CE001200090EF
:101100002DE00122D102214800F0BFFE0A2000F0AC
:101110001DFD00224FF400611C4800F0B6FE0A20BD
:1011200000F014FD0122D102184800F0AEFE4FF489
:101130008041164800F0AEFE50B116489DF80410EC
:10114000405CBDF80010084312499DF80420885403
:10115000BDF800004FF6FF7101EA40000090BDF8B5
:101160000000FF28CDDD102000F0F0FC9DF8040009
:10117000401CC0B201909DF804000928BEDB01228A
:101180009102024800F081FE1CBD000000180240E0
:10119000A8030020D033002010B500224FF4806156
:1011A0000B4800F072FE0B490878FFF771FE094901
:1011B0004878FFF76DFE01229102054800F065FEB8
:1011C00005484078732801D1002010BD0120FCE7BC
:1011D00000180240A8030020D033002010B5FFF70C
:1011E00027FF00F05FF800F05DF800F05BF8FFF714
:1011F000BFFE00F005F800F031F8FFF7E9FE10BD82
:1012000010B500224FF48061134800F03EFE01202B
:10121000FFF73EFE4420FFF73BFE0020FFF738FEBD
:101220000120FFF735FEEE20FFF732FE0020FFF72A
:101230002FFE0020FFF72CFE0020FFF729FE0020E4
:10124000FFF726FE01229102034800F01EFE102047
:1012500000F07CFC10BD00000018024010B5002218
:101260004FF480610E4800F010FE102000F06EFC7C
:101270000120FFF70DFE4D20FFF70AFE0020FFF7CB
:1012800007FE0020FFF704FE0120FFF701FE012208
:101290009102034800F0F9FD102000F057FC10BD4A
:1012A0000018024010B500224FF48061104800F091
:1012B000ECFD102000F04AFC0120FFF7E9FD422080
:1012C000FFF7E6FD0020FFF7E3FD0020FFF7E0FD5C
:1012D0000020FFF7DDFD0020FFF7DAFD012291027B
:1012E000034800F0D2FD102000F030FC10BD0000DB
:1012F000001802407047000070B500244FF40073DE
:1013000001220021174800F0CDFD00251FE000223A
:101310004FF48071134800F0B8FD052000F016FC72
:10132000012211020F4800F0B0FD052000F00EFC74
:101330006006040E4FF400710A4800F0ABFD08B1DE
:1013400044F00104052000F001FC681CC5B2082D22
:10135000DDDB00224FF48071024800F096FD20464C
:1013600070BD0000000402407047000070B50446E4
:1013700000254FF4007301221146144800F092FD3D
:1013800000224FF48071114800F07FFD00BF1AE089
:10139000E2094FF400710D4800F077FD00BF012213
:1013A00011020A4800F071FD052000F0CFFB002279
:1013B0004FF48071054800F068FD052000F0C6FB81
:1013C0006006040E6D1C082DE2DB70BD00040240B7
:1013D00010B500F0C5FB10BD08B52D48006840F4FD
:1013E00070002B4908602B48006840F00100294933
:1013F000086028480830006840F08000254908311E
:1014000008600020009002E00098401C00904CF220
:10141000503100988842F7D31E480830006840F0E9
:1014200090001C49083108600020009002E00098FC
:10143000401C00904CF2503100988842F7D3154878
:101440000830006820F00300124908310860114894
:101450000068114908400F4908600846006820F4F8
:101460008020086000200B490831086000BF09484F
:101470000830006800200028F9D108480549091DF6
:101480000860002003490C31086001F021FE08BD0E
:1014900088ED00E000380240FFFFF6FE1030002427
:1014A00010B50121084802F0C0F801280AD1012135
:1014B000054802F0B7F88021044800F0E4FC04A0DD
:1014C00000F0D2F810BD000000040040000C024003
:1014D0004253505F54494D4552325F495251484141
:1014E0004E444C4552210D0A0000000010B5012168
:1014F000084802F09AF801280AD10121054802F0B3
:1015000091F80821044800F0BEFC04A000F0ACF8FB
:1015100010BD000000100040001002404253505F18
:1015200054494D4552355F49525148414E444C450E
:1015300052210D0A0000000010B51249124802F0B5
:10154000AEFA01280BD1104802F0BAF9C1B20F4827
:1015500002880088401C0D4B18800D4881540D49AD
:10156000094802F09CFA01280AD1074802F0A8F9BC
:1015700000200749054A128888540120064908704E
:1015800010BD000005030500007800401400002095
:10159000D0230020040304001600002010B51249D7
:1015A000124802F07CFA01280BD1104802F088F9A9
:1015B000C1B20F4802880088401C0D4B18800D48AE
:1015C00081540D49094802F06AFA01280AD10748F6
:1015D00002F076F900200749054A12888854012054
:1015E0000649087010BD0000050305000010014009
:1015F0000C000020D0030020040304000E00002093
:1016000010B51249124802F04AFA01280BD11048CD
:1016100002F056F9C1B20F4802880088401C0D4BF9
:1016200018800D4881540D49094802F038FA012804
:101630000AD1074802F044F900200749054A1288F8
:10164000885401200649087010BD000005030500FC
:101650000048004010000020D013002004030400C4
:101660001200002000BFFEE70FB4054B10B503A920
:10167000044A029800F0A4F810BC5DF814FB0000C6
:10168000151E0008CC0300202DE9F0412DED020BC2
:101690009FED3D0B2DED028B9FED3D8BDDE902545F
:1016A000C4F30A50A0F2FF36142E37DA002E18DAEF
:1016B00053EC102B9DED020B51EC100BFEF7A6FD29
:1016C00053EC182BFFF708F857D2002CA4BF0024C6
:1016D000254652DA24F00040284318BF2E4C4CD047
:1016E0001AE02E4820FA06F704EA070028431FD024
:1016F00053EC102B9DED020B51EC100BFEF786FD09
:1017000053EC182BFEF7E8FF37D2002C03DA4FF426
:101710008010F0400444BC4300252EE0332E07DC4B
:10172000A6F114004FF0FF3121FA00F73D4206D137
:101730009DED020BBDEC028B02B0BDE8F08153ECD5
:10174000102B9DED020B51EC100BFEF703FE53EC3A
:10175000182BFEF7C1FF10D2002C0DDA142E08BF93
:10176000641C09D0C6F13400012101FA00F02844BC
:10177000A84238BF641C0546BD43CDE902549DED27
:10178000020BD7E7000000009C7500883CE4377E20
:1017900000000000000000000000F0BFFFFF0F008D
:1017A00002E008C8121F08C1002AFAD1704770472A
:1017B000002001E001C1121F002AFBD17047000088
:1017C0002DE9FF4F8BB088460546002606E0252808
:1017D0000BD0DDE90D1290476D1C761C287800288F
:1017E000F5D10FB03046BDE8F08F0024A146A246E7
:1017F0000122AE4900E0044315F8013F203B02FA04
:1018000003F00842F7D128782A2810D06FF02F0271
:101810002878A0F13001092915D809EB890102EBDC
:10182000410144F0020400EB01096D1CF0E758F897
:10183000041B5FEA010903D544F40054C9F100090F
:1018400044F002046D1C28782E2817D115F8010FDA
:1018500044F004042A280ED06FF02F022878A0F15B
:10186000300109290AD80AEB8A0102EB410100EB99
:10187000010A6D1CF2E758F804AB6D1C28786C283F
:101880000FD006DC4C2817D068280DD06A2814D158
:1018900004E0742810D07A280FD10DE044F400142D
:1018A0000AE044F4801401E044F440146978814271
:1018B00002D104F580146D1C6D1C2878692865D050
:1018C00006DC00288DD0632827D0642806D15DE08F
:1018D0006E2808D073282AD0752877D0DDE90D123C
:1018E0009047761CE0E0C4F30250022809D0032898
:1018F0000DD0D8F8001004280DD00E6008F10408AF
:10190000D2E0D8F80010F217C1E90062F6E7D8F883
:1019100000100E80F2E70E70F0E718F8041B8DF847
:10192000001000208DF80100EB46012003E058F87C
:1019300004BB4FF0FF3061074FF0000701D40AE00D
:101940007F1C57450DDA8742FADB1BF80710002988
:10195000F6D106E07F1C8742FCDB1BF8071000294C
:10196000F8D1DDE90D23A9EB07008146214600F0FF
:10197000B1F83044C61904E0DDE90D121BF8010B83
:1019800090477F1EF8D22146484688E058F8040B5D
:10199000C4F302514FF00A0B032900D100B204290D
:1019A00000D140B2002802DA40422D2102E0210598
:1019B00005D52B218DF82410012104E006E0E10774
:1019C00010D02021F6E708AF089113E058F8040B77
:1019D000C4F302514FF00A0B032900D180B204294D
:1019E00000D1C0B20021EEE75946FEF7D0FD3031FC
:1019F00007F8011D0028F7D1ADEB070000F1200B1F
:101A0000600702D524F4803401E04FF0010ADA4582
:101A100002DDAAEB0B0000E00020824600EB0B0188
:101A200008980144A9EB01000A90E00306D4DDE91F
:101A30000D2321460A9800F04DF806444FF00009A6
:101A400008E009A911F80900DDE90D12904709F134
:101A50000109761C08998945F3DBE0030CD5DDE923
:101A60000D2321460A9800F035F8064404E0DDE92C
:101A70000D1230209047761CBAF10001AAF1010A3C
:101A8000F5DC05E0DDE90D1217F8010B9047761C37
:101A9000BBF10001ABF1010BF4DC0A982146DDE952
:101AA0000D2300F005F806446D1C97E60928010097
:101AB0002DE9F041044600251E461746880404D44B
:101AC00005E039462020B0476D1C641EF9D5284634
:101AD000BDE8F0812DE9F041044600251E46904600
:101AE000C80301D5302700E02027880404D505E08D
:101AF00041463846B0476D1C641EF9D52846BDE8FE
:101B0000F081000010B540F6054001F09DF94FF45A
:101B1000807300220121054800F0C4F94FF480735E
:101B200002220021014800F0E4F910BD0014024037
:101B30004FF47A714143044A116000BF02490968B9
:101B40000029FBD170470000000000200349086015
:101B500000BF024909680029FBD17047000000203E
:101B60000448006820B103480068401E014908602D
:101B7000704700000000002010B504290CDA01EBCA
:101B800041035C00C1F3400304EB830302FA03F357
:101B90008468234383600DE00B1FD9B201EB41033E
:101BA0005C00C1F3400304EB830302FA03F3C4684F
:101BB0002343C36010BDF0B50346002500260C4644
:101BC000042979DA082A34D004DC012A07D0042A4F
:101BD00070D119E0102A41D0202A6BD153E001EBDB
:101BE00041004700C1F3400007EB800702FA07F00D
:101BF0001F6800EA070601EB4100C70003F124005B
:101C0000C05900F0800556E001EB41004700C1F3E8
:101C1000400007EB800702FA07F01F6800EA07069A
:101C200001EB4100C70003F11000C05900F00205AC
:101C300041E001EB41004700C1F3400007EB8007A2
:101C400002FA07F01F6800EA070601EB4100C7002F
:101C500003F11000C05900F004052CE001EB410035
:101C60004700C1F3400007EB800702FA07F01F6846
:101C700000EA070601EB4100C70003F11000C0595C
:101C800000F0080517E001EB41004700C1F34000F8
:101C900007EB800702FA07F01F6800EA070601EB6E
:101CA0004100C70003F11000C05900F0100502E028
:101CB00002E0FFE700BF7AE0201FC4B2082A34D058
:101CC00004DC012A07D0042A6FD119E0102A41D080
:101CD000202A6AD153E004EB44004700C4F34000DB
:101CE00007EB800702FA07F05F6800EA070601EBDE
:101CF0004100C70003F12400C05900F0800555E001
:101D000004EB44004700C4F3400007EB800702FAED
:101D100007F05F6800EA070601EB4100C70003F126
:101D20001000C05900F0020540E004EB44004700F9
:101D3000C4F3400007EB800702FA07F05F6800EA8F
:101D4000070601EB4100C70003F11000C05900F085
:101D500004052BE004EB44004700C4F3400007EB0C
:101D6000800702FA07F05F6800EA070601EB41000E
:101D7000C70003F11000C05900F0080516E004EB9D
:101D800044004700C4F3400007EB800702FA07F065
:101D90005F6800EA070601EB4100C70003F110008D
:101DA000C05900F0100501E0FFE700BF00BF16B109
:101DB0000DB10120F0BD0020FCE7000001490860E2
:101DC00070470000143C014001460748006800EAE3
:101DD000010205481438006800EA010312B10BB192
:101DE000012070470020FCE7143C014010B540F68C
:101DF000014001F029F8032300220121044800F0EA
:101E000051F8032302220021014800F072F810BDAE
:101E10000004024070B504460D46E0B201F06CFECD
:101E2000204670BDF0B503461C6A5D6A00200DE0D7
:101E30000126864016403EB187000F26BE40B443BF
:101E4000860001FA06F63443461CB0B20828EFD3E8
:101E5000082011E00126864016405EB1A0F1080678
:101E6000B7000F26BE40B543A0F10806B60001FA40
:101E700006F63543461CB0B21028EBD31C625D62F7
:101E8000F0BD81617047C16270470AB1816100E0B5
:101E90008162704702461069084008B1012070470E
:101EA0000020FCE7F0B504460D4616462168E268BE
:101EB000002019E0012787401F409FB14FEA400CE6
:101EC000032707FA0CF7B943470005FA07F7394328
:101ED0004FEA400C032707FA0CF7BA43470006FA0B
:101EE00007F73A43471CB8B21028E3D32160E260F9
:101EF000F0BDF0B50C461546012C03D146681E43D3
:101F0000466002E046689E434660826800210DE01C
:101F100001268E401E403EB14F000326BE40B24314
:101F20004E0005FA06F632434E1CB1B21029EFD32B
:101F30008260F0BD10B540F6014000F085FF10232F
:101F4000002201219448FFF7ADFF10230222002157
:101F50009148FFF7CEFF40F6014000F075FF4023A7
:101F6000002201218C48FFF79DFF4023022200211F
:101F70008948FFF7BEFF40F6014000F065FF2023CF
:101F8000002201218448FFF78DFF20230222002137
:101F90008148FFF7AEFF40F6014000F055FF0823EF
:101FA000002201217C48FFF77DFF08230222002147
:101FB0007948FFF79EFF40F6014000F045FF80237F
:101FC000002201217448FFF76DFF802302220021C7
:101FD0007148FFF78EFF40F6014000F035FF4FF4E7
:101FE0008053002201216C48FFF75CFF4FF48053BF
:101FF000022200216848FFF77CFF41F2F8016648A1
:10200000FFF73FFF002210216348FFF73EFF142037
:10201000FFF78EFD012210215F48FFF736FF1420E5
:10202000FFF786FD012211035B48FFF72EFF3620E4
:10203000FEF738FD0020FEF727FD3A20FEF732FDBF
:102040000520FEF721FDB220FEF72CFD0C20FEF747
:102050001BFD0C20FEF718FD0020FEF715FD3320B8
:10206000FEF712FD3320FEF70FFDB720FEF71AFD35
:102070003520FEF709FDBB20FEF714FD1920FEF701
:1020800003FDC020FEF70EFD2C20FEF7FDFCC22054
:10209000FEF708FD0120FEF7F7FCC320FEF702FD66
:1020A0001220FEF7F1FCC420FEF7FCFC2020FEF716
:1020B000EBFCC620FEF7F6FC0F20FEF7E5FCD02077
:1020C000FEF7F0FCA420FEF7DFFCA120FEF7DCFC0D
:1020D000E020FEF7E7FCD020FEF7D6FC0420FEF758
:1020E000D3FC0D20FEF7D0FC1120FEF7CDFC132011
:1020F000FEF7CAFC2B20FEF7C7FC3F20FEF7C4FC0E
:102100005420FEF7C1FC4C20FEF7BEFC1820FEF761
:10211000BBFC0D20FEF7B8FC0B20FEF7B5FC1F2022
:10212000FEF7B2FC2320FEF7AFFCE120FEF7BAFC7D
:10213000D020FEF7A9FC0420FEF7A6FC0C20FEF739
:10214000A3FC1120FEF7A0FC1320FEF79DFC2C2021
:10215000FEF79AFC3F20FEF797FC4420FEF794FC24
:102160005120FEF791FC2F20FEF78EFC1F20FEF77A
:102170008BFC1F20FEF788FC2020FEF785FC232027
:10218000FEF782FC2120FEF78DFC1120FEF78AFC71
:102190002920FEF787FC10BD0004024010B540F670
:1021A000044000F051FE40F6034000F04DFE40F6C2
:1021B000064000F049FE4FF4406000F045FE082361
:1021C000002201211648FFF76DFE80230022012125
:1021D0001448FFF767FE0823002201211248FFF789
:1021E00061FE2023002201211048FFF75BFE082337
:1021F000022200210A48FFF77CFE802302220021F0
:102200000848FFF776FE0823022200210648FFF760
:1022100070FE2023022200210448FFF76AFE10BD51
:1022200000100240000C0240001802400000024072
:1022300008B5002400254FF4A06000F0DDFC00F09C
:102240004BFF4FF4165001F0C7FB4FF4E13001F0A3
:102250005BFA4FF4165001F0F5F96421C82000F044
:10226000D5FCFFF79BFFFFF765FEFFF74BFCFFF781
:10227000BDFD00F0E3FB00209FEDF70AFEF790FCA8
:10228000FEF7ACFFF5A0FFF7EFF94FF47A70FFF718
:102290004FFC4FF6FF70FEF7AAFB4FF6FF70F149B7
:1022A000086000224FF48071EF48FFF7EEFD6420D4
:1022B000FFF73EFC01221102EB48FFF7E6FDEB4879
:1022C000F0231A46002100900846FEF7A6FB4FF4C3
:1022D0007A70FFF72DFCB4E2FEF724FE0546002DD0
:1022E00078D02946E2A0FFF7BFF91A2D73D2DFE8B4
:1022F00005F0AC0D1E2F4051617376797C8285AC60
:10230000ACACACACACACAC888C9094A0DB48008896
:1023100000F08BFB4FF6FF70FEF769FBD848F02307
:10232000BA22002100903520FEF777FB8EE0D348DB
:10233000008800F071FB4FF6FF70FEF758FBD148A4
:10234000F023BB22002100903520FEF766FB7DE0E4
:10235000CA48008800F0D3FB4FF6FF70FEF747FB3A
:10236000C948BB23F022352100900020FEF755FB21
:102370006CE0C248008800F0B9FB4FF6FF70FEF732
:1023800036FBC248BB23F022352100900020FEF727
:1023900044FB5BE0002000F0BBFB4FF6FF70FEF754
:1023A00026FBBB48F0231A46002100900846FEF7A2
:1023B00034FB4BE0012000F0ABFB4FF6FF70FEF763
:1023C00016FBAA48F0231A46002100900846FEF7A3
:1023D00024FB3BE03BE038E000F0ACFD36E000F0F1
:1023E000C5FD33E000F0DCFD30E0012211029E4823
:1023F000FFF74BFD2AE000F0B9FD27E000F0D0FD2B
:1024000024E041209D49088020E050209B4908801D
:102410001CE064209949088018E02146002000F063
:102420005BFD601CB42190FBF1F201FB1200C4B211
:102430000CE02146012000F04FFD601CB42190FB10
:10244000F1F201FB1200C4B200E000BF00BFFEF7D2
:10245000A3FEB0B90620FEF709FD06460520FEF7EB
:1024600005FD07460820FEF701FD80460720FEF720
:10247000FDFC81463B464246494686A00096FFF752
:10248000F3F83220FFF754FB87480078002872D019
:102490000020854908708548018885A0FFF7E4F889
:1024A000884989A0FFF7E0F8864800781A2873D297
:1024B000DFE800F0B20D1E2F4051627376797C8206
:1024C00088B2B2B2B2B2B2B2B28E92969AA66B484B
:1024D000008800F0AAFA4FF6FF70FEF788FA684805
:1024E000F023BA22002100903520FEF796FA94E0FE
:1024F0006248008800F090FA4FF6FF70FEF777FA16
:102500006048F023BB22002100903520FEF785FAB9
:1025100083E05A48008800F0F2FA4FF6FF70FEF7A9
:1025200066FA5948BB23F022352100900020FEF7BF
:1025300074FA72E05148008800F0D8FA4FF6FF7044
:10254000FEF755FA5148BB23F022352100900020B8
:10255000FEF763FA61E0002000F0DAFA4FF6FF7050
:10256000FEF745FA4A48F0231A4600210090084633
:10257000FEF753FA51E059E0012000F0C9FA4FF696
:10258000FF70FEF734FA3948F0231A460021009014
:102590000846FEF742FA40E03EE000F0CBFC3CE0AB
:1025A00000F0E4FC39E000F0FBFC36E0012211020F
:1025B0002D48FFF76AFC30E0002201214748FFF771
:1025C00064FC2AE0002202214448FFF75EFC24E07C
:1025D00041202A49088020E05020284908801CE03A
:1025E00064202649088018E02146002000F074FC91
:1025F000601CB42190FBF1F201FB1200C4B20CE0AC
:102600002146012000F068FC601CB42190FBF1F22F
:1026100001FB1200C4B200E000BF00BF23480188E4
:102620002848FDF7E8FD0020204908802C48007864
:1026300000285BD000202A4908702A4801881CA085
:10264000FFF712F8284920A0FFF70EF82648007877
:10265000102878D24BE00000000048427374617289
:10266000740D0A00A40300200014024048860508E7
:10267000256420646F776E200D0A0000040000209E
:102680004848070888430808E83B0A08A8400908A2
:10269000C847000820253564202535642025356489
:1026A000202535640D0A00001600002014000020CB
:1026B000675F726563765F6C656E6774683A256400
:1026C00020000000D0230020675F726563765F62A0
:1026D0007566663A25730D0A00000000000402408A
:1026E0001200002010000020D0130020A9E0DFE835
:1026F00000F09E08192B3C4D5D6D747A80868C929B
:10270000969A5048008800F090F94FF6FF70FEF757
:102710006EF94D48F023BA22002100903520FEF7D3
:102720007CF985E04748008800F076F94FF6FF70A5
:10273000FEF75DF94548F023BB22002100903520CB
:10274000FEF76BF974E072E03E48008800F0D7F9BC
:102750004FF6FF70FEF74BF93D48BB23F0223521C1
:1027600000900020FEF759F962E03648008800F03A
:10277000BDF94FF6FF70FEF73AF93648BB23F02259
:10278000352100900020FEF748F951E0002000F0CC
:10279000BFF94FF6FF70FEF72AF92F48F0231A46CB
:1027A000002100900846FEF738F941E0012000F0D2
:1027B000AFF94FF6FF70FEF71AF92848F0231A46D2
:1027C000002100900846FEF728F931E000224FF47E
:1027D00080712348FFF759FB2AE001221146214866
:1027E000FFF753FB24E0012202211E48FFF74DFBB7
:1027F0001EE0012211021A48FFF747FB18E00022F1
:1028000001211848FFF741FB12E000220221154880
:10281000FFF73BFB0CE041200A49088008E050200C
:102820000849088004E064200649088000E000BFF1
:1028300000BF0D4801880D48FDF7DDFC00200A4966
:10284000088049E504000020484807088843080834
:10285000E83B0A08A8400908C84700084886050858
:10286000001402400004024010000020D013002099
:1028700010B504460223002201210948FFF712FB8C
:102880000020084908600123002202210448FFF7C4
:1028900009FB224600214FF0804000F06EFD10BD84
:1028A000000002408402404210B504460123002289
:1028B00019460948FFF7F6FA002008490860022384
:1028C000002219460448FFF7EDFA22460121880745
:1028D00000F053FD10BD00000000024080024042A5
:1028E00010B504469CB10223002201211248FFF7D3
:1028F000D9FA0120114908600123002219460E4827
:10290000FFF7D0FA01200E49C1F8800212E002233D
:10291000002201210848FFF7C5FA00200749086096
:102920000123002219460448FFF7BCFA002004499D
:10293000C1F8800210BD0000000002408402404245
:102940000000404210B50446082300220121094836
:10295000FFF7A8FA0020084908600423002202219A
:102960000448FFF79FFA22460221480700F005FDC0
:1029700010BD0000000002408C02404210B5044629
:102980000423002201210948FFF78CFA002008499E
:1029900008600823002202210448FFF783FA224638
:1029A00003214FF0804000F0E8FC10BD0000024021
:1029B0008802404210B504469CB108230022012140
:1029C0001248FFF76FFA0120114908600423002222
:1029D00001210E48FFF766FA01200E49C1F888026E
:1029E00012E00823002201210848FFF75BFA0020CB
:1029F000074908600423002201210448FFF752FA26
:102A000000200449C1F8880210BD00000000024007
:102A10008C0240420000404210B504462046FFF7B9
:102A200027FF2046FFF78EFF10BD10B50446204655
:102A3000FFF73AFF2046FFF7A1FF10BD10B54FF496
:102A4000406000F001FA0123002202212648FFF72E
:102A500029FA0123022200212348FFF74AFA012222
:102A600011462148FFF7DEF94FF4406000F0ECF921
:102A70000223002219461C48FFF714FA02231A46C3
:102A800000211948FFF735FA022201211648FFF705
:102A9000C9F94FF4406000F0D7F904230022022165
:102AA0001148FFF7FFF90423022200210E48FFF727
:102AB00020FA042201210C48FFF7B4F94FF44060DA
:102AC00000F0C2F90823002202210748FFF7EAF9C3
:102AD0000823022200210448FFF70BFA08220121F3
:102AE0000148FFF79FF910BD0000024010B50446F1
:102AF0002046FFF7D9FE2046FFF724FF10BD10B592
:102B000004462046FFF7B4FE2046FFF737FF10BD0E
:102B100010B5044634B10120FFF7E2FE0120FFF7B3
:102B200049FF05E00020FFF7DBFE0020FFF742FF32
:102B300010BD00002DE9F04103460D461646002465
:102B40000027A0462A48006800F4E060B0F5E06F76
:102B500003D100BF4FF0040830E02548006800F4BE
:102B6000E060B0F5C06F03D101274FF0030825E006
:102B70001F48006800F4E060B0F5A06F02D10227A2
:102B8000B8461BE01A48006800F4E060B0F5806FBA
:102B900003D103274FF0010810E01548006800F446
:102BA000E060B0F5407F03D104274FF0000805E056
:102BB0004FF4A06000F020F80227B846C7F10400E7
:102BC00005FA00F4C8F104010F20C8403040044366
:102BD00024010848C45403F01F0101208840591102
:102BE000890001F1E021C1F80001BDE8F081000099
:102BF0000CED00E000E400E002490143024A1160EC
:102C0000704700000000FA050CED00E030B587B019
:102C100005460C464FF4805000F016F94FF08070D6
:102C200000F048F94FF0804000F0E8FB681E80B2E9
:102C3000ADF80C000020ADF80E00ADF81000601EDD
:102C400005900020ADF812008DF8180003A94FF090
:102C5000804000F09BFC0020ADF804000120ADF89E
:102C600000006A460021800700F064FA6A460121EC
:102C7000880700F05FFA6A460221480700F05AFA16
:102C80006A4603214FF0804000F054FA00221146BA
:102C90004FF0804000F071FB602200214FF0804037
:102CA00000F03EFB002211464FF0804000F078FB20
:102CB00000220121880700F060FB602201218807C3
:102CC00000F02EFB00220121880700F069FB0022A2
:102CD0000221480700F051FB60220221480700F062
:102CE0001FFB00220221480700F05AFB00220321AB
:102CF0004FF0804000F041FB602203214FF0804004
:102D000000F00EFB002203214FF0804000F048FB52
:102D10004FF0804000F008FA4FF0804000F030FCA7
:102D200007B030BD2DE9F04F8CB0064600200A9068
:102D30003EA090E8004CC068CDE905BECDF810A0DB
:102D400007900FF2EC0ADAE9000ACDE9020A0FF265
:102D5000E00ADAE9000ACDE9000A38480068C0F361
:102D600081000B900B9820B1012804D0022828D1B3
:102D700003E0334927E0334925E03048001F00686D
:102D800000F03F072D48001F0068C0F3881C2B4847
:102D9000001F0068C0F30140401C4FEA400927486B
:102DA000001F006800F48008B8F5800F01D1254BA2
:102DB00000E0234BB3FBF7F000FB0CF0B0FBF9F1A4
:102DC00001E01F4900BF00BF1C480068C0F30314A6
:102DD00004A8055D21FA05F218480068C0F38224B2
:102DE00002A8055D22FA05F0099014480068C0F3B6
:102DF00042341DF8045022FA05F0089036B1012E35
:102E000006D0022E06D0032E0AD106E00A9108E071
:102E10000A9206E009980A9003E008980A9000E0F8
:102E200000BF00BF0A980CB0BDE8F08F00000000A2
:102E300000000000010203040607080908380240E8
:102E40000024F40040787D01074A02EB9011D1F88C
:102E5000001800F01F0301229A401143024B03EBBC
:102E60009012C2F80018704700300240074A02EB87
:102E70009011D1F8001800F01F0301229A409143ED
:102E8000024B03EB9012C2F800187047003002406A
:102E9000074A02EB9011D1F8001800F01F0301223D
:102EA0009A401143024B03EB9012C2F8001870478E
:102EB000003002406FF08071884205D105490968F1
:102EC0000140044A116004E0024909680143014AD3
:102ED000116070478C38024070B52DED068B0546A9
:102EE0000C4600262046FDF719FB41EC1A0B9FED1E
:102EF0000D0B53EC102BFDF730FA41EC190B9FED45
:102F00000B0B53EC102BFDF781F941EC180BFDF77F
:102F100012FB0646324600212846FDF77BFFBDEC3A
:102F2000068B70BD9A99999999990140000000000B
:102F300000C0634010B50B48006848B900224FF448
:102F400080710948FEF7A1FF01200649086007E0EB
:102F5000012211020448FEF798FF00200149086091
:102F600010BD0000380000200014024010B50A48CF
:102F7000006840B9012211460848FEF786FF01208B
:102F80000549086007E0002201210448FEF77DFFA3
:102F900000200149086010BD3C00002000040240F0
:102FA00010B50A48006840B9012202210848FEF71E
:102FB0006CFF01200549086007E000220221044857
:102FC000FEF763FF00200149086010BD40000020AB
:102FD00000040240002000213A4A126842F4803284
:102FE000384B1A6000BF401C364A126802F40031A8
:102FF00019B94FF6FF729042F5D1324A126802F4C5
:1030000000320AB900BFFEE72E4A4032126842F091
:1030100080522C4B40331A602B4A126842F44042D3
:10302000294B1A60274A08321268264B08331A6067
:103030001A46126842F400421A601A46126842F4B4
:10304000A0521A60214A1B1F1A601A1F126842F010
:1030500080721B1F1A6000BF1A4A126802F00072C9
:10306000002AF9D0184A126842F48032164B1A60CE
:1030700000BF154A526802F48032002AF9D0124A81
:10308000126842F40032104B1A6000BF0E4A5268B8
:1030900002F40032002AF9D00A4A0832126822F0FB
:1030A0000302084B08331A601A46126842F0020203
:1030B0001A6000BF034A0832126802F00802002AB0
:1030C000F8D0704700380240007000401964400991
:1030D00010B5FFF77FFF10BD10B51148006811490A
:1030E000B0FBF1F4601EB0F1807F01D301200FE04E
:1030F000601E4FF0E02148610F214FF0FF30FDF7D7
:1031000013FD00204FF0E0218861072008610020B6
:1031100008B100BFFEE70021481EFDF705FD10BD08
:103120000800002040420F00016841F0800101606A
:103130007047000010B531B101293FD002297DD080
:1031400003297CD1BFE0036A23F001030362836992
:1031500023F003038361036A148823430362036A31
:1031600023F002030362036A9488234303626A4BD9
:10317000984202D0694B98421FD1036A23F004039E
:103180000362036A548823430362036A23F008033B
:103190000362036AD48823430362436823F4807381
:1031A00043604368148923434360436823F40073F6
:1031B00043604368548923434360ABE0036A23F0D0
:1031C00010030362836923F440738361036A1488E4
:1031D00043EA04130362036A23F020030362036AD1
:1031E000948843EA041303624B4B984202D04B4B42
:1031F000984226D1036A23F040030362036A54888D
:1032000043EA04130362036A23F080030362036A40
:10321000D48843EA04130362436823F48063436061
:103220004368148943EA84034360436823F40063DA
:1032300043604368548943EA840301E002E068E0A4
:10324000436067E0036A23F480730362C36923F079
:103250000303C361036A148843EA04230362036A15
:1032600023F400730362036A948843EA042303622D
:10327000294B984202D0294B984223D1036A23F468
:1032800080630362036A548843EA04230362036A87
:1032900023F400630362036AD48843EA04230362CD
:1032A000436823F4805343604368148943EA04135A
:1032B0004360436823F4005343604368548943EAFE
:1032C0000413436026E0036A23F480530362C36956
:1032D00023F44073C361036A148843EA043303622E
:1032E000036A23F400530362036A948843EA0433B5
:1032F0000362094B984202D0084B984208D14368B8
:1033000023F4804343604368148943EA8413436091
:1033100000E000BF00BF10BD0000014000040140FC
:1033200031B101290CD0022913D0032922D118E090
:10333000836923F0700383618369134383611AE017
:10334000836923F4E0438361836943EA0223836151
:1033500011E0C36923F07003C361C3691343C36100
:1033600009E0C36923F4E043C361C36943EA02236C
:10337000C36100E000BF00BF704731B1012906D032
:10338000022906D0032908D105E0426306E08263E2
:1033900004E0C26302E0026400E000BF00BF7047C7
:1033A00031B101290CD0022913D0032922D118E010
:1033B000836923F0080383618369134383611AE0FF
:1033C000836923F400638361836943EA0223836191
:1033D00011E0C36923F00803C361C3691343C361E8
:1033E00009E0C36923F40063C361C36943EA0223AC
:1033F000C36100E000BF00BF7047000010B5044685
:103400005C49601A8C426FD019DC5B49A4EB010067
:103410008C424ED009DCB4F1804F2ED05748204466
:10342000A0B3B0F5806F72D13AE0B0F5806F49D0AB
:10343000B0F5006F4FD0B0F5406FF4D17BE0B0F540
:10344000923F5BD009DCB0F5806F73D0B0F5644F6C
:103450000AD0B0F5684F5AD147E0B0F5943F57D045
:10346000B0F5963F53D15CE04FF41060FFF710FDCC
:103470004FF41060FFF7FAFC79E04FF40060FFF7BB
:1034800007FD4FF40060FFF7F1FC70E0FFE740F646
:103490000100FFF7FDFC40F60100FFF7E7FC66E0E6
:1034A00040F60200FFF7F4FC40F60200FFF7DEFCF6
:1034B0005DE040F60300FFF7EBFC40F60300FFF78A
:1034C000D5FC54E040F60400FFF7E2FC40F60400AF
:1034D000FFF7CCFC4BE040F60500FFF7D9FC40F6C7
:1034E0000500FFF7C3FC42E02EE040F60110FFF7B5
:1034F000CFFC40F60110FFF7B9FC38E04FF4116043
:10350000FFF7C6FC4FF41160FFF7B0FC2FE02DE091
:1035100040F61110FFF7BCFC40F61110FFF7A6FCB7
:1035200025E040F61210FFF7B3FC40F61210FFF74B
:103530009DFC1CE011E040F60600FFF7A9FC40F6F8
:103540000600FFF793FC12E040F60700FFF7A0FC2F
:1035500040F60700FFF78AFC09E040F60800FFF795
:1035600097FC40F60800FFF781FC00E000BF00BFB9
:1035700010BD0000001C0040000C004000FCFFBF1C
:10358000016841F001010160704700000A88826211
:103590001D4A90420ED0B0F1804F0BD01B4A904292
:1035A00008D01B4A904205D01A4A904202D01A4ACB
:1035B00090420BD1026822F07002026002684B88D0
:1035C0001A43026002688B881A4302608A68C262EA
:1035D000124A90420AD0124A904207D0026822F45E
:1035E000407202600268CB881A430260064A904229
:1035F00002D0094A904201D10A7B0263426942F03B
:1036000001024261704700000000014000040040D8
:1036100000080040000C0040000401400010004081
:1036200000140040CA43026170470246D06800EAB5
:1036300001031069084010B10BB101207047002050
:10364000FCE7000010B5044640F60540FFF7FCFB20
:1036500040F60540FFF7F8FB41F21E00FFF7F4FBD0
:10366000802208212648FEF7DDFB4022082124485D
:10367000FEF7D8FB8023012202212148FEF712FC2D
:103680004023012202211E48FEF70CFC8023022267
:1036900000211B48FEF72DFC402302220021184880
:1036A000FEF727FC174800F015F92146154800F0F1
:1036B00093F80021134800F00EFA0021114800F0A1
:1036C0003BFA00210F4800F027FA0E4800F070F98D
:1036D00008210C4800F028FA04210A4800F003FAF7
:1036E000022211465220FFF725FA40F20531054823
:1036F00000F0C8F94FF44171024800F0C3F910BD61
:10370000001402400078004010B5044640F6024024
:10371000FFF79AFB40F60240FFF796FB41F21200DA
:10372000FFF792FB4FF4806207212948FEF77AFBEE
:103730004FF4006207212648FEF774FB4FF48063C4
:10374000012202212248FEF7ADFB4FF40063012263
:1037500002211F48FEF7A6FB4FF4806302220021DE
:103760001B48FEF7C6FB4FF40063022200211848F5
:10377000FEF7BFFB174800F0ADF82146154800F0F2
:103780002BF80021134800F0A6F90021114800F0A1
:10379000D3F900210F4800F0BFF90E4800F008F9F6
:1037A00008210C4800F0C0F904210A4800F09BF9F8
:1037B000022211462720FFF7BDF940F205310548E6
:1037C00000F060F94FF44171024800F05BF910BD60
:1037D00000080240004800402DE9F04704460D462D
:1037E0000027B846B94600263349601A8C4235D0C6
:1037F0000CDC32482044E8B1B0F5806F1FD0B0F542
:10380000006F21D0B0F5406F32D122E0B0F5806F6B
:1038100029D0B0F5184F03D0B0F51C4F28D104E0E3
:103820000320FFF77FFA074623E00320FFF77AFA29
:1038300007461EE00220FFF775FA074619E002204E
:10384000FFF770FA074614E00220FFF76BFA07460D
:103850000FE00220FFF766FA07460AE00220FFF7B2
:1038600061FA074605E00220FFF75CFA074600E030
:1038700000BF00BFE06800F4004070B1780000EBCA
:103880005500B0FBF5F64FF6F07006EA0008C6F3F7
:10389000420948EA0900A0600CE007EB5500B0FBC4
:1038A000F5F64FF6F07006EA000806F00F0948EA50
:1038B0000900A060BDE8F0870078004000BCFFBFB1
:1038C00001464868C0F308007047C1F3080242602F
:1038D0007047000010B504463349601A8C424DD041
:1038E0000CDC32482044E0B1B0F5806F22D0B0F556
:1038F000006F31D0B0F5406F52D136E0B0F5806F37
:1039000045D0B0F5184F03D0B0F51C4F48D11AE0A0
:1039100040F60410FFF7BCFA40F60410FFF7A6FAD1
:103920003FE040F61100FFF7B3FA40F61100FFF751
:103930009DFA36E040F61200FFF7AAFA40F61200B0
:10394000FFF794FA2DE040F60510FFF7A1FA40F6D4
:103950000510FFF78BFA24E040F61300FFF798FA02
:1039600040F61300FFF782FA1BE040F61400FFF761
:103970008FFA40F61400FFF779FA12E040F61E00C5
:10398000FFF786FA40F61E00FFF770FA09E040F6EE
:103990001F00FFF77DFA40F61F00FFF767FA00E00F
:1039A00000BF00BF10BD00000078004000BCFFBF9A
:1039B000C16841F40051C160704710B5024602EB86
:1039C0009110006801F01F040123A340184008B1C2
:1039D000012010BD0020FCE710B504464FF4406004
:1039E000FFF732FA4FF44060FFF72EFA41F204106D
:1039F000FFF72AFA4FF4007207212048FEF712FA67
:103A00004FF4806207211D48FEF70CFA4FF4007353
:103A1000012202211948FEF745FA4FF48063012282
:103A200002211648FEF73EFA4FF4007302220021ED
:103A30001248FEF75EFA4FF48063022200210F481D
:103A4000FEF757FA0E48FFF745FF21460C48FFF7EF
:103A5000C3FE00210A4800F03EF80021084800F0AB
:103A60006BF80021064800F057F80548FFF7A0FF63
:103A70000821034800F058F810BD00000000024083
:103A80000010014010B500EB9112126801F01F0404
:103A90000123A3401A4300EB91131A6010BD70B5C7
:103AA000024600230024C1F38910105801F01F06BC
:103AB0000125B54000EA050302EB91500068C1F30F
:103AC00004460125B54000EA050414B10BB10120FC
:103AD00070BD0020FCE7C26822F4C062C260C26808
:103AE0000A43C26070470A460021C16821F0040100
:103AF0001143C1607047000010B5044621460548D7
:103B0000FFF7E3FE00BF07210248FFF756FF00283A
:103B1000F9D010BD00100140026922F44052026148
:103B200002690A43026170470A460021C16821F018
:103B300008011143C1607047C26822F48052C2601C
:103B4000C2680A43C2607047FFFFFFFFFFFFFFFF2D
:103B5000FFFFFFFFFFFFFFFFFFFFFFFFFFFFFFFF75
:103B6000FFFFFFFFBEF77DEFBAD6B6B5F39CB29468
:103B7000B39CB29434A5F7BDFBDE7DEFFFFFFFFFE2
:103B8000FFFFFFFFFFFFFFFFFFFFFFFFFFFFFFFF45
:103B9000FFFFFFFFFFFFFFFFFFFFFFFFFFFFFFFF35
:103BA000FFFFFFFFFFFFFFFFFFFFFFFFFFFFFFFF25
:103BB000BEF7FBDEF39CCB5AC739042182104210BA
:103BC0004210410883184529C7390C6375AD3CE79D
:103BD000BEF7FFFFFFFFFFFFFFFFFFFFFFFFFFFF3E
:103BE000FFFFFFFFFFFFFFFFFFFFFFFFFFFFFFFFE5
:103BF000FFFFFFFFFFFFFFFFFFFFFFFFFFFF3CE7B0
:103C0000B2940842C31882100421452986318631B6
:103C1000863186314529042182104108C3180842A3
:103C2000F39C3CE7FFFFFFFFFFFFFFFFFFFFFFFFEE
:103C3000FFFFFFFFFFFFFFFFFFFFFFFFFFFFFFFF94
:103C4000FFFFFFFFFFFFFFFFFFFFFFFFFBDE0C6338
:103C5000C318C3184529C739084208420842084218
:103C600008420842C739C7398631863104214108E4
:103C70008210CB5ABAD6FFFFFFFFFFFFFFFFFFFF07
:103C8000FFFFFFFFFFFFFFFFFFFFFFFFFFFFFFFF44
:103C9000FFFFFFFFFFFFFFFFFFFFFBDECB5A82109E
:103CA0004529C73908420842094A494A494A494A06
:103CB000494A494A0842C739C739C739863145296F
:103CC00083180000C84138C6FFFFFFFFFFFFFFFF5A
:103CD000FFFFFFFFFFFFFFFFFFFFFFFFFFFFFFFFF4
:103CE000FFFFFFFFFFFFFFFF7DEF8E73821045296F
:103CF000C7390842094A8A523084CF7B8A52494ADE
:103D00004A52494ACB5ACF7B0C630842C7398631A5
:103D10004529C3180000494ABAD6FFFFFFFFFFFF3D
:103D2000FFFFFFFFFFFFFFFFFFFFFFFFFFFFFFFFA3
:103D3000FFFFFFFFFFFFFFFFF39CC3180421C739FC
:103D40000842494A494A72947DEF7DEFB2944A5243
:103D5000494A8A5275ADBEF7BAD64D6BC739C739D5
:103D600086314529C3184108CF7B7CE7FFFFFFFF61
:103D7000FFFFFFFFFFFFFFFFFFFFFFFFFFFFFFFF53
:103D8000FFFFFFFFFFFFBAD608428210C739084283
:103D9000494A494A8E73FBDEFFFFBEF7BAD68E73DF
:103DA000084230843CE77DEFFFFFB6B5494AC7398A
:103DB00086314529042141084529B6B5FFFFFFFF9B
:103DC000FFFFFFFFFFFFFFFFFFFFFFFFFFFFFFFF03
:103DD000FFFFFFFFBEF7718C410845290842494AA1
:103DE000494A4A52B294BEF7BEF7B294CF7BCF7B1A
:103DF000494AB6B5F39C0C6338C6BAD60C6387390A
:103E0000C73986314529C318410830847DEFFFFF4B
:103E1000FFFFFFFFFFFFFFFFFFFFFFFFFFFFFFFFB2
:103E2000FFFFFFFF3CE7CB5A4108C7390842494A28
:103E30004A528A52F39CFFFF7DEFC739C3180C63C7
:103E4000CB5AB6B5B294CB5A75ADFAD64D6B87390D
:103E5000C73986314529042141088A5279CEFFFFAE
:103E6000FFFFFFFFFFFFFFFFFFFFFFFFFFFFFFFF62
:103E7000FFFFFFFF38C686310421C841494A494A3D
:103E80004A52494AB18CBEF7BEF7B294CF7BCF7B82
:103E9000494A74A57DEF7CE7BEF779CE0C63C7393C
:103EA000C7398631452904218210452975ADBEF7F1
:103EB000FFFFFFFFFFFFFFFFFFFFFFFFFFFFFFFF12
:103EC000FFFFFFFF34A5821086310842494A494A64
:103ED0008A52494A4D6BBAD6FFFFFFFF79CE0D6378
:103EE000C739CF7B7DEFFFFFFFFF75AD08428631FD
:103EF000C739863145294529C318C318B2947DEFC7
:103F0000FFFFFFFFFFFFFFFFFFFFFFFFFFFFFFFFC1
:103F1000FFFFBEF7B28C4108C7390842494A494AF7
:103F20008A528A524A4AD07B7AC67BBE906BC93984
:103F30008831C939B384BBC6F8B5CC5A8631C73984
:103F4000C739863145294529C420410830843CE7DA
:103F5000FFFFFFFFFFFFFFFFFFFFFFFFFFFFFFFF71
:103F6000FFFF3CE78A4AC310C7390842494A494A19
:103F70004A4A4A42093A084A096B497BC67A05838C
:103F80004683C57AC672097B485A873188218829B9
:103F90008631863145294529042141084A4ABAD645
:103FA000FFFFFFFFFFFFFFFFFFFFFFFFFFFFFFFF21
:103FB000FFFFF7C582500541C7290842494A4A42D6
:103FC000494A097B889BC6B321D4A0DCE1E461EDBA
:103FD00061ED21EDA0E420DC80CB43ABC482065A26
:103FE0004721462945290429041982108218F39C87
:103FF0007DEFFFFFFFFFFFFFFFFFFFFFFFFFFFFF63
:104000007DEF4D9300A082B8C7310932494A867AC4
:1040100043C36BEDF4F6EBFD20FD20FD60FDA0FD3C
:10402000A0FD60FD60FD20FDE0FCA0FC60F4C1DBB4
:10403000839AC54945290419C42082380050CB6AA7
:10404000BAD6FFFFFFFFFFFFFFFFFFFFFFFFFFFFEE
:10405000FBEE04A100C000F0C3A0C8414942059B8B
:1040600020FCA4FC69FDE8FD63FD20FD60FD60FD12
:1040700060FD20FD20FDE0FCE0FCA0FC60FC20FCDD
:1040800041D3C5494519C438826841880070495AEE
:1040900079CEFFFFFFFFFFFFFFFFFFFFFFFFFFFFE7
:1040A000FBF682C000D086C146F141C845798952ED
:1040B0008862866AC67AC4BBE1FC60FD60FDA0FD33
:1040C000A0FD60FD60FDE0FC60E403938472446A3F
:1040D000C5414529C35841A8409800B000600C6B09
:1040E00079CEFFFFFFFFFFFFFFFFFFFFFFFF7DEF29
:1040F000CE83828800F8C4D80CF38AFA82E882B0B2
:104100004569C7510842083A865A839BA2BC22CD12
:1041100021CDA1C422B4C47A063A862945290531A5
:10412000C450419000C000A800A000A800304A4A36
:10413000BAD6FFFFFFFFFFFFFFFFFFFF7DEF8E738C
:10414000C318053982A800F8C3F84DFB4DFBC7F929
:10415000C3F082D8C3B0048145614651864986497F
:10416000464145414541454105490461829041B080
:1041700000D000C800A800A800B8415882108210E2
:10418000B294BEF7FFFFFFFFFFFFBEF7CF7B8210A9
:10419000042186298641049940E841F886F9CBFA42
:1041A00049FA82F800F800F000E841D841D041C057
:1041B00041C041C041C041C800D000E000E000D88B
:1041C00000D000B800A84188824882108210000008
:1041D000452979CEFFFFFFFFBEF7F39C8210C3187D
:1041E00045298631C731307CF3DC86E100F000F8E8
:1041F00041F841F800F800F800F800F800F800F87D
:1042000000F800F800F800F800E800E000E000D84E
:1042100000C841A08A9A0C630411821082104108E0
:1042200000004D6B7DEFFFFFFBDE08424210452989
:1042300086318631494A38BEFFFF38D686A900C884
:1042400000E000F000F800F800F800F800F800F8CE
:1042500000F800F800F000F000E800E000D0C3989B
:104260008A8AB2A4BAC6F7B508424108821041084A
:1042700000004529F7BDFFFF718C41080421452945
:10428000863186310C633CE7FFFF79D646B900E002
:1042900042C882A882B041D882E882F041E841E871
:1042A00041E841F041E841D804C108924D8B34A562
:1042B000FBC6FBD6BACE3CE73084C31841084108A0
:1042C00000004108CF7B7DEF494A000004214529C9
:1042D000463186313084FFFFFFF7F7DD09DA83F8D6
:1042E00001F042C08298499AF3B4F3CC71BC8EBB02
:1042F0008EBB30BC71BCF3BCB6BDFBCEBEE77DE768
:104300003BDFBAD679CEFBDE75AD86314108410878
:1043100000000000494AFBDE042141080421452930
:1043200045298739B294FFFFBEF734DD0CEB09FA5B
:1043300000F001D800D88BD27DE7FFFFFFFFFFFF21
:10434000FFFFFFFFFFFFFFFFFFFFBEFF7DEFFBDE75
:10435000FBDEBAD679CEBAD678C6C7390000410896
:1043600000000000C73979CE00008210C318042174
:1043700005298631B39CFFFFFFF775DDC7E9C7F953
:1043800001F801F000E849E2FBEEFFFFFFFFFFFF4D
:10439000FFFFFFFFFFFFFFFFFFFFBEF77DEFFBDE2D
:1043A000FBDEBAD679CEBAD6B9CE084200000000FC
:1043B00000000000C73938C60000821082100421B6
:1043C000042145293084FFFFFFFF38DEC4D000F010
:1043D00001F800F800F008D2FBE6FFFFFFFFFFFF47
:1043E000FFFFFFFFFFFFFFFFFFFFBEF77DEFFBDEDD
:1043F000BAD679CE79CEBAD679CEC739410800007F
:1044000000000000863138C600000000C318CB5AF7
:104410008631C318CB5A7DEFFFFF7DEFCFBBC3B012
:1044200041D041D082B84DB37DE7FFFFFFFFFFFFD2
:10443000FFFFFFFFFFFFFFFFBEF7BEF73DEFFBDE15
:10444000BAD679CE79CEFAD6F7BD042186310421C9
:1044500000000000863138C68631C318CB5A75ADCE
:10446000CF7B41088631F7BDFFFFFFFFBEEF74B57C
:10447000309C309C72A4BBD6FFFFFFFFFFFFFFFF05
:10448000FFFFFFFFFFFFFFFFBEF77DEF3CE7FBDE17
:10449000BAD679CE79CE3CE7718C81080C63CF7B9C
:1044A000821000008A5238C675AD718CB6B53CE7F3
:1044B000FBDEC7390000CF73FFFFFFFFFFFFFFFFE9
:1044C000FFFFFFFFFFFFFFFFFFFFFFFFFFFFFFFFFC
:1044D000FFFFFFFFFFFFBEF77DEF7DEF3BDFFAD66B
:1044E00079CE79CEFBDEB9CEC739C420718CBAD66D
:1044F000718CCB5AB294BAD6FFFF7DEF7DEFFFFFF0
:10450000FFFFB6B54629051975A5FFFFFFFFFFFFA1
:10451000FFFFFFFFFFFFFFFFFFFFFFFFFFFFFFFFAB
:10452000FFFFFFFFFFFFBEF77DEF3CE7FBDEBAD6E4
:1045300079CEBAD6FCDE4E6342080C63F7BDBEF7F7
:10454000FFFFFBDEFBDEBEF7FFFFFFFFFFFFFFFF0E
:10455000FFFFFFFFF49C04210521B6A5FFFFFFFF2D
:10456000FFFFFFFFFFFFFFFFFFFFFFFFFFFFFFFF5B
:10457000FFFFBEF7BEF77DEF3CE7FBDEBAD679CE94
:10458000FBDEBBD6D17383188639349DBDEFFFFFA8
:10459000FFFFFFFFFFFFFFFFFFFFFFFFFFFFFFFF2B
:1045A000BEFF35D6EBCC43B340510519F58CBEEFB9
:1045B000FFFFFFFFFFFFFFFFFFFFFFFFFFFFBEF754
:1045C000BEF77DEF7DEF3CE7FBDEBADEBAD63CDF1F
:1045D0003ABE4F63824940A323B4CC833ABEFFFF67
:1045E000FFFFFFFFFFFFFFFFFFFFFFFFFFFFBFF723
:1045F000B5BD829220F4A0FC60E4408284418F6BC0
:1046000077AD3DE7FFFFFFFFFEFFBEF7BEF7BEF74A
:104610007DEF7DEF3CE7FBDEFBDE3DE7BBCE369D6D
:104620000B6B416A60C420FE60F5008BC76A38C618
:10463000BEF7FFFFFFFFFFFFFFFFFFFFFFFF7DEF65
:104640004B7B80B2A0FCA0FCE0FCE0FCC0CBC18AAC
:1046500045624D6BB394F7BD3DDFFFF7FFFFBEF73B
:104660007DEF7DEF7DE73DDFBAC675A58D7B847A52
:1046700040B3E0ECE0FDE0FD60F520E5A0D40A6B7E
:10468000FBDEFFFFFFFFFFFFFFFFFFFFFFFF7DEFF1
:10469000CC9340EB60FCA0FCE0FC20FD60FD20F52D
:1046A000A0D4C0BB429B458B6B9CAE9C718CB394D9
:1046B000339D34A5F2A4F0B4CA9B049B40BB20E414
:1046C00020FDA0FDA0FDE0FDE0FDE0FD20C4885A36
:1046D00038BEFFFFFFFFFFFFFFFFFFFFFFFFFFFFF2
:1046E00078D646AB40DB20F460FCA0FCE0FC60FD2B
:1046F000A0FD60FD20F5A0DCC0B3C05186290D638C
:104700008F7B0D5BC741018200C3C0E360FCA0FC4E
:10471000E0FCE0FC60F560F520E5809B866230847B
:1047200079CEFFFFFFFFFFFFFFFFFFFFFFFFFFFF50
:10473000FFFF38C62D9C059343A382B3C2BBC2BB07
:1047400022B482A34293C37A85620B637184B6B5A7
:1047500079CE79C6B5AD70944A8B06830493049BD9
:10476000439B439B4393048308738D73B39479CE27
:104770007DEFFFFFFFFFFFFFFFFFFFFFFFFFFFFFDB
:10478000FFFFFFFF3CDF38BE75B533A533A5F39CB3
:10479000F39CF39CF394F39C35A5F8BDFBDEBEF7C8
:1047A000FFFFFFFFFFFF7EEFBBD6F8BDB6AD75ADD7
:1047B00034A5339D349D35A5B7AD79C63CE7BEF72A
:1047C000FFFFFFFFFFFFFFFFFFFFFFFFFFFFFFFFF9
:1047D000FFFFFFFFFFFFFFFFFFFFFFFFFFFFFFFFE9
:1047E000FFFFFFFFFFFFFFFFFFFFFFFFFFFFFFFFD9
:1047F000FFFFFFFFFFFFFFFFFFFFFFFFFFFFFFFFC9
:10A45000DFFFFFFFFFFFFFFFFFFFFFFFFFFFDEFF4D
:10A46000FDFFB0A4675A02318020A028A028C1288F
:10A47000E130A449AD8BB9E6FEFFFEFFFFFFFFFF11
:10A48000FFFFFFFFFFFFFFFFFFFFFFFFFFFFFFFFDC
:10A49000FFFFFFFFFFFFFFFFFFFFFFFFFFFFFFFFCC
:10A4A000FFFFFFFFFFFFFFFFFFFFFFFFFFFFFFFFBC
:10A4B000FFFFFFFFFFFFFFFFFFFFFFFFFFFFFFFFAC
:10A4C000FFFFFFFFFFFFFFFFFFFFFFFFFFFFFFFF9C
:10A4D000FFFFFFFFFFFFFFFFFFFFFFFFFFFFFFFF8C
:10A4E000FFFFFFFFFFFFFFFFFFFFFFFFFFFFFFFF7C
:10A4F000FFFFFFFFFFFFFFFFFFFFFFFFFFFFFFFF6C
:10A50000FFFFFFFFFFFFFFFFFFFFFFFFFFFFFFFF5B
:10A51000FFFFFFFFFFFFFFFFFFFFFFFFFFFFFFFF4B
:10A52000FFFFFFFFFFFFFFFFFFFFFFFFFFFFFFFF3B
:10A53000FFFFFFFFFFFFFFFFFFFFFFFFFFFFFFFF2B
:10A54000FFFFFFFFFFFFFFFFFFFFFFFFFFFFFFFF1B
:10A55000FFFFFFFFFFFFFFFFFFFFFFFFFFFFFFFF0B
:10A56000FFFFFFFFFFFFFFFFFFFFFFFFFFFFFFFFFB
:10A57000FFFFFFFFFFFFFFFFFFFFFFFFFFFFFFFFEB
:10A58000FFFFFFFFFFFFFFFFFFFFFFFFFFFFFFFFDB
:10A59000FFFFFFFFFFFFFFFFFFFFFFFFFFFFFFFFCB
:10A5A000FFFFFFFFFFFFFFFFFFFFFFFFFFFFFFFFBB
:10A5B000FFFFFFFFFFFFFFFFFFFFFFFFFFFFFFFFAB
:10A5C000FFFFFFFFFFFFFFFFFFFFFFFFFFFFFFFF9B
:10A5D000FFFFFFFFFFFFFFFFFFFFFFFFFFFFFFFF8B
:10A5E000FFFFFFFFFFFFFFFFFFFFFFFFFFFFFFFF7B
:10A5F000FFFFFFFFFFFFFFFFFFFFFFFFFFFFFFFF6B
:10A60000FFFFFFFFFFFFFFFFFFFFFFFFFFFFFFFF5A
:10A61000FFFFFFFFFFFFFFFFFFFFFFFFFFFFFFFF4A
:10A62000FFFFFFFFFFFFFFFFFFFFFFFFFFFFFEFF3B
:10A63000D6C5C128A449224942494249214942512B
:10A640004251625141514151415141514151415158
:10A650006251625141514151425142514251625104
:10A6600062518351C1302E94BEFFFFFFFFFFFFFFF9
:10A67000FFFFFFFFFFFFFFFFFFFFFFFFFFFFFFFFEA
:10A68000FFFFFFFFFFFFFFFFFFFFFFFFFFFFFFFFDA
:10A69000FFFFFFFFFFFFFFFFFFFFFFFFFFFFFFFFCA
:10A6A000FFFFFFFFFFFFFFFFFFFFFFFFFFFFFFFFBA
:10A6B000FFFFFFFFFFFFFFFFFFFFFFFFFFFFFFFFAA
:10A6C000FFFFFFFFFFFFFFFFFFFFFFFFFFFFFFFF9A
:10A6D000FFFFFFFFFFFFFFFFFFFFFFFFFFFFFFFF8A
:10A6E000FFFFFFFFFFFFFFFFFFFFFFFFFFFFFFFF7A
:10A6F000FFFFFFFFFFFFFFFFFFFFFFFFFFFFFFFF6A
:10A70000FFFFFFFFFFFFFFFFFFFFFFFFFFFFFFFF59
:10A71000FFFFFFFFFFFFFFFFFFFFFFFFFFFFFFFF49
:10A72000FFFFFFFFFFFFFFFFFFFFFFFFFFFFFFFF39
:10A73000FFFFFFFFFFFFFFFFFFFFFFFFFFFFFFFF29
:10A74000FFFFFFFFFFFFFFFFFFFFFFFFFFFFFFFF19
:10A75000FFFFFFFFFFFFFFFFFFFFFFFFFFFFFFFF09
:10A76000FFFFFFFFFFFFFFFFFFFFFFFFFFFFFFFFF9
:10A77000FFFFFFFFFFFFFFFFFFFFFFFFFFFFFFFFE9
:10A78000FFFFFFFFFFFFFFFFFFFFFFFFFFFFFFFFD9
:10A79000FFFFFFFFFFFFFFFFFFFFFFFFFFFFFFFFC9
:10A7A000FFFFFFFFFFFFFFFFFFFFFFFFFFFFFFFFB9
:10A7B000FFFFFFFFFFFFFFFFFFFFFFFFFFFFFFFFA9
:10A7C000FFFFFFFFFFFFFFFFFFFFFFFFFFFFFFFF99
:10A7D000FFFFFFFFFFFFFFFFFFFFFFFFFFFFFFFF89
:10A7E000FFFFFFFFFFFFFFFFFFFFFFFFFFFFFFFF79
:10A7F000FFFFFFFFFFFFFFFFFFFFFFFFFFFFFFFF69
:10A80000FFFFFFFFFEFFF2AC2239624921494149B7
:10A810002151625142516251415141514151625164
:10A820004151425162514151415141514151625155
:10A8300062516251425162514151625962596259A9
:10A84000425142514251625162516251224143414F
:10A850004B7BFFFFDEFFFFFFFFFFFFFFFFFFFFFF61
:10A86000FFFFFFFFFFFFFFFFFFFFFFFFFFFFFFFFF8
:10A87000FFFFFFFFFFFFFFFFFFFFFFFFFFFFFFFFE8
:10A88000FFFFFFFFFFFFFFFFFFFFFFFFFFFFFFFFD8
:10A89000FFFFFFFFFFFFFFFFFFFFFFFFFFFFFFFFC8
:10A8A000FFFFFFFFFFFFFFFFFFFFFFFFFFFFFFFFB8
:10A8B000FFFFFFFFFFFFFFFFFFFFFFFFFFFFFFFFA8
:10A8C000FFFFFFFFFFFFFFFFFFFFFFFFFFFFFFFF98
:10A8D000FFFFFFFFFFFFFFFFFFFFFFFFFFFFFFFF88
:10A8E000FFFFFFFFFFFFFFFFFFFFFFFFFFFFFFFF78
:10A8F000FFFFFFFFFFFFFFFFFFFFFFFFFFFFFFFF68
:10A90000FFFFFFFFFFFFFFFFFFFFFFFFFFFFFFFF57
:10A91000FFFFFFFFFFFFFFFFFFFFFFFFFFFFFFFF47
:10A92000FFFFFFFFFFFFFFFFFFFFFFFFFFFFFFFF37
:10A93000FFFFFFFFFFFFFFFFFFFFFFFFFFFFFFFF27
:10A94000FFFFFFFFFFFFFFFFFFFFFFFFFFFFFFFF17
:10A95000FFFFFFFFFFFFFFFFFFFFFFFFFFFFFFFF07
:10A96000FFFFFFFFFFFFFFFFFFFFFFFFFFFFFFFFF7
:10A97000FFFFFFFFFFFFFFFFFFFFFFFFFFFFFFFFE7
:10A98000FFFFFFFFFFFFFFFFFFFFFFFFFFFFFFFFD7
:10A99000FFFFFFFFFFFFFFFFFFFFFFFFFFFFFFFFC7
:10A9A000FFFFFFFFFFFFFFFFFFFFFFFFFFFFFFFFB7
:10A9B000FFFFFFFFFFFFFFFFFFFFFFFFFFFFFFFFA7
:10A9C000FFFFFFFFFFFFFFFFFFFFFFFFFFFFFFFF97
:10A9D000FFFFFFFFFFFFFFFFFFFFFFFFFFFFFEFF88
:10A9E00043396249424942514151425142496251BF
:10A9F000415121512149414921516251014142496D
:10AA00004241E138E1382239C449465A465AE451B4
:10AA10006341A030E038214162492149425122512D
:10AA2000635942594151825141514251225142513F
:10AA30002249214962498441FFFFDEFFFFFFFFFFFA
:10AA4000FFFFFFFFFFFFFFFFFFFFFFFFFFFFFFFF16
:10AA5000FFFFFFFFFFFFFFFFFFFFFFFFFFFFFFFF06
:10AA6000FEFFFEFFFFFFFFFFFFFFFFFFFFFFFFFFF8
:10AA7000FFFFFFFFFFFFFFFFFFFFFFFFFFFFFFFFE6
:10AA8000FFFFFFFFFFFFFFFFFFFFFFFFFFFFFFFFD6
:10AA9000FFFFFFFFFFFFFFFFFFFFFFFFFFFFFFFFC6
:10AAA000FFFFFFFFFFFFFFFFFFFFFFFFFFFFFFFFB6
:10AAB000FFFFFFFFFFFFFFFFFFFFFFFFFFFFFFFFA6
:10AAC000FFFFFFFFFFFFFFFFFFFFFFFFFFFFFFFF96
:10AAD000FFFFFFFFFFFFFFFFFFFFFFFFFFFFFFFF86
:10AAE000FFFFFFFFFFFFFFFFFFFFFFFFFFFFFFFF76
:10AAF000FFFFFFFFFFFFFFFFFFFFFFFFFFFFFFFF66
:10AB0000FFFFFFFFFFFFFFFFFFFFFFFFFFFFFFFF55
:10AB1000FFFFFFFFFFFFFFFFFFFFFFFFFFFFFFFF45
:10AB2000FFFFFFFFFFFFFFFFFFFFFFFFFFFFFFFF35
:10AB3000FFFFFFFFFFFFFFFFFFFFFFFFFFFFFFFF25
:10AB4000FFFFFFFFFFFFFFFFFFFFFFFFFFFFFFFF15
:10AB5000FFFFFFFFFFFFFFFFFFFFFFFFFFFFFFFF05
:10AB6000FFFFFFFFFFFFFFFFFFFFFFFFFFFFFFFFF5
:10AB7000FFFFFFFFFFFFFFFFFFFFFFFFFFFFFFFFE5
:10AB8000FFFFFFFFFFFFFFFFFFFFFFFFFFFFFFFFD5
:10AB9000FFFFFFFFFFFFFFFFFFFFFFFFFFFFFFFFC5
:10ABA000FFFFFFFFFFFFFFFFFFFFFFFFFFFFFFFFB5
:10ABB000FFFFFFFFFFFFFFFFDEFFC1304249E04024
:10ABC00041514151625121494151214920410041A6
:10ABD0000139C441DDFFFDFFFEFFFEFFFFFFFFFF68
:10ABE000FFFFFFFFFFFFFFFFFFFFFFFFFFFFFFFF75
:10ABF000FFFFFFFFFFFFFFFFFFFFFFFFFFFFFFFF65
:10AC0000FEFFDEFF475A013963494251215141514C
:10AC10002251415121490151004922496441FFFF1C
:10AC2000FFFFFFFFFFFFFFFFFFFFDEFF0A6B812833
:10AC30006451635162512151014901490049004960
:10AC4000E048E04800492151214983514249834964
:10AC50009CFFDEFFFFFFFFFFFFFFFFFFFFFFFFFF88
:10AC6000FFFFFFFFFFFFFFFFFFFFFFFFFFFFFFFFF4
:10AC7000FFFFFFFFFFFFFFFFFFFFFFFFFFFFFFFFE4
:10AC8000FFFFFFFFFFFFFFFFFFFFFFFFFFFFFFFFD4
:10AC9000FFFFFFFFFFFFFFFFFFFFFFFFFFFFFFFFC4
:10ACA000FFFFFFFFFFFFFFFFFFFFFFFFFFFFFFFFB4
:10ACB000FFFFFFFFFFFFFFFFFFFFFFFFFFFFFFFFA4
:10ACC000FFFFFFFFFFFFFFFFFFFFFFFFFFFFFFFF94
:10ACD000FFFFFFFFFFFFFFFFFFFFFFFFFFFFFFFF84
:10ACE000FFFFFFFFFFFFFFFFFFFFFFFFFFFFFFFF74
:10ACF000FFFFFFFFFFFFFFFFFFFFFFFFFFFFFFFF64
:10AD0000FFFFFFFFFFFFFFFFFFFFFFFFFFFFFFFF53
:10AD1000FFFFFFFFFFFFFFFFFFFFFFFFFFFFFFFF43
:10AD2000FFFFFFFFFFFFFFFFFFFFFFFFFFFFFFFF33
:10AD3000FFFFFFFFFFFFFFFFFFFFFFFFFFFFFFFF23
:10AD4000FFFFFFFFFFFFFFFFFFFFFFFFFFFFFFFF13
:10AD5000FFFFFFFFFFFFFFFFFFFFFFFFFFFFFFFF03
:10AD6000FFFFFFFFFFFFFFFFFFFFFFFFFFFFFFFFF3
:10AD7000FFFFFFFFFFFFFFFFFFFFFFFFFFFFFFFFE3
:10AD8000FFFFFFFFFFFFFFFFFFFFFFFFFFFFFFFFD3
:10AD9000FFFFBDFF223983514151414921492149DA
:10ADA000214941514249E1380A6BDEFFFFFFFFFFB5
:10ADB000DFF7FFFFFFFFFFFFFFFFFFFFFFFFFFFFCB
:10ADC000FFFFFFFFFFFFFFFFFFFFFFFFFFFFFFFF93
:10ADD000FFFFFFFFFFFFFFFFFFFFFFFFFFFFFFFF83
:10ADE000FFFFFFFFFFFFDFFFFFFFFFFFFFFF475AF0
:10ADF000A451004921512151215101510151E040FB
:10AE00000141424963512249014922514251425173
:10AE10004251425121512151225121512151004988
:10AE200021512151215121514251625162514251CE
:10AE30004251E0406249A030FEFFFFFFFFFFFFFFED
:10AE4000FFFFFFFFFFFFFFFFFFFFFFFFFFFFFFFF12
:10AE5000FFFFFFFFFFFFFFFFFFFFFFFFFFFFFFFF02
:10AE6000FFFFFFFFFFFFFFFFFFFFFFFFFFFFFFFFF2
:10AE7000FFFFFFFFFFFFFFFFFFFFFFFFFFFFFFFFE2
:10AE8000FFFFFFFFFFFFFFFFFFFFFFFFFFFFFFFFD2
:10AE9000FFFFFFFFFFFFFFFFFFFFFFFFFFFFFFFFC2
:10AEA000FFFFFFFFFFFFFFFFFFFFFFFFFFFFFFFFB2
:10AEB000FFFFFFFFFFFFFFFFFFFFFFFFFFFFFFFFA2
:10AEC000FFFFFFFFFFFFFFFFFFFFFFFFFFFFFFFF92
:10AED000FFFFFFFFFFFFFFFFFFFFFFFFFFFFFFFF82
:10AEE000FFFFFFFFFFFFFFFFFFFFFFFFFFFFFFFF72
:10AEF000FFFFFFFFFFFFFFFFFFFFFFFFFFFFFFFF62
:10AF0000FFFFFFFFFFFFFFFFFFFFFFFFFFFFFFFF51
:10AF1000FFFFFFFFFFFFFFFFFFFFFFFFFFFFFFFF41
:10AF2000FFFFFFFFFFFFFFFFFFFFFFFFFFFFFFFF31
:10AF3000FFFFFFFFFFFFFFFFFFFFFFFFFFFFFFFF21
:10AF4000FFFFFFFFFFFFFFFFFFFFFFFFFFFFFFFF11
:10AF5000FFFFFFFFFFFFFFFFFFFFFFFFFFFFFFFF01
:10AF6000FFFFFFFFFFFFFFFFFFFFFFFFFFFFC96ABC
:10AF7000C0380041414942494251004941490139E3
:10AF80004339FEFFFFFFFFFFFFFFFFFFFFFFFFFF54
:10AF9000FFFFFFFFFFFFFFFFFFFFFFFFFFFFFFFFC1
:10AFA000FFFFFFFFFFFFFFFFFFFFFFFFFFFFFFFFB1
:10AFB000FFFFFFFFFFFFFFFFFFFFFFFFFFFFFFFFA1
:10AFC000FFFFFFFFFFFFFFFFFFFFFFFFFFFFFFFF91
:10AFD000FFFFBDF7FEFF02394259825941514251EC
:10AFE0002251425121512251414942514151215155
:10AFF0002259E1500051205121512159215901512B
:10B000002251225122514251215101492151425193
:10B010004249635942512249C040E140E130FFFFBB
:10B02000FFFFFFFFFFFFFFFFFFFFFFFFFFFFFFFF30
:10B03000FFFFFFFFFFFFFFFFFFFFFFFFFFFFFFFF20
:10B04000FFFFFFFFFFFFFFFFFFFFFFFFFFFFFFFF10
:10B05000FFFFFFFFFFFFFFFFFFFFFFFFFFFFFFFF00
:10B06000FFFFFFFFFFFFFFFFFFFFFFFFFFFFFFFFF0
:10B07000FFFFFFFFFFFFFFFFFFFFFFFFFFFFFFFFE0
:10B08000FFFFFFFFFFFFFFFFFFFFFFFFFFFFFFFFD0
:10B09000FFFFFFFFFFFFFFFFFFFFFFFFFFFFFFFFC0
:10B0A000FFFFFFFFFFFFFFFFFFFFFFFFFFFFFFFFB0
:10B0B000FFFFFFFFFFFFFFFFFFFFFFFFFFFFFFFFA0
:10B0C000FFFFFFFFFFFFFFFFFFFFFFFFFFFFFFFF90
:10B0D000FFFFFFFFFFFFFFFFFFFFFFFFFFFFFFFF80
:10B0E000FFFFFFFFFFFFFFFFFFFFFFFFFFFFFFFF70
:10B0F000FFFFFFFFFFFFFFFFFFFFFFFFFFFFFFFF60
:10B10000FFFFFFFFFFFFFFFFFFFFFFFFFFFFFFFF4F
:10B11000FFFFFFFFFFFFFFFFFFFFFFFFFFFFFFFF3F
:10B12000FFFFFFFFFFFFFFFFFFFFFFFFFFFFFFFF2F
:10B13000FFFFFFFFFFFFFFFFFFFFFFFFFFFFFFFF1F
:10B14000FFFFFFFFFFFFFFFFFFFF223941492149BA
:10B150002249414920490049214116CEFEFFFFFF07
:10B16000FFFFFFFFFFFFFFFFFFFFFFFFFFFFFFFFEF
:10B17000FFFFFFFFFFFFFFFFFFFFFFFFFFFFFFFFDF
:10B18000FFFFFFFFFFFFFFFFFFFFFFFFFFFFFFFFCF
:10B19000FFFFFFFFFFFFFFFFFFFFFFFFFFFFFFFFBF
:10B1A000FFFFFFFFFFFFFFFFFFFFFFFFFFFFFFFFAF
:10B1B000FFFFFFFFFFFFFFFFFFFFFFFFA038214959
:10B1C0004151E050015101494249E1384FA4BCFFCF
:10B1D000DEFFFEFFFFFFFFFFFFFFFFFFFFFFFFFFA1
:10B1E000FFFFFFFFFFFFFFFFFFFFFEFFFEFFAC8340
:10B1F000C13801414259215121494151415121490F
:10B20000A128FFFFFFFFFFFFFFFFFFFFFFFFFFFF83
:10B21000FFFFFFFFFFFFFFFFFFFFFFFFFFFFFFFF3E
:10B22000FFFFFFFFFFFFFFFFFFFFFFFFFFFFFFFF2E
:10B23000FFFFFFFFFFFFFFFFFFFFFFFFFFFFFFFF1E
:10B24000FFFFFFFFFFFFFFFFFFFFFFFFFFFFFFFF0E
:10B25000FFFFFFFFFFFFFFFFFFFFFFFFFFFFFFFFFE
:10B26000FFFFFFFFFFFFFFFFFFFFFFFFFFFFFFFFEE
:10B27000FFFFFFFFFFFFFFFFFFFFFFFFFFFFFFFFDE
:10B28000FFFFFFFFFFFFFFFFFFFFFFFFFFFFFFFFCE
:10B29000FFFFFFFFFFFFFFFFFFFFFFFFFFFFFFFFBE
:10B2A000FFFFFFFFFFFFFFFFFFFFFFFFFFFFFFFFAE
:10B2B000FFFFFFFFFFFFFFFFFFFFFFFFFFFFFFFF9E
:10B2C000FFFFFFFFFFFFFFFFFFFFFFFFFFFFFFFF8E
:10B2D000FFFFFFFFFFFFFFFFFFFFFFFFFFFFFFFF7E
:10B2E000FFFFFFFFFFFFFFFFFFFFFFFFFFFFFFFF6E
:10B2F000FFFFFFFFFFFFFFFFFFFFFFFFFFFFFFFF5E
:10B30000FFFFFFFFFFFFFFFFFFFFFFFFFFFFFFFF4D
:10B31000FFFFFFFFFFFFFFFFFFFFFFFFFFFFFFFF3D
:10B32000FFFFFFFFFFFF21394149214942514151B0
:10B33000205141516341FFFFDEF7FFFFFFFFFFFF99
:10B34000FFFFFFFFFFFFFFFFFFFFFFFFFFFFFFFF0D
:10B35000FFFFFFFFFFFFFFFFFFFFFFFFFFFFFFFFFD
:10B36000FFFFFFFFFFFFFFFFFFFFFFFFFFFFFFFFED
:10B37000FFFFFFFFFFFFFFFFFFFFFFFFFFFFFFFFDD
:10B38000FFFFFFFFFFFFFFFFFFFFFFFFFFFFFFFFCD
:10B39000FFFFFFFFFFFFFFFFFFFFFFFFDEFF224971
:10B3A000E1408028FEFFFFFFFFFFFFFFFFFFDFFF01
:10B3B000FFFFFFFFFFFFFFFFFFFFFFFFFFFFFFFF9D
:10B3C000FFFFFFFFFFFFFFFFFFFFFFFFFFFFFFFF8D
:10B3D000FFFFDEFFFEFF4F9C4251C0402151425112
:10B3E00000512231FFFFFFFFFFFFFFFFFFFFFFFFC5
:10B3F000FFFFFFFFFFFFFFFFFFFFFFFFFFFFFFFF5D
:10B40000FFFFFFFFFFFFFFFFFFFFFFFFFFFFFFFF4C
:10B41000FFFFFFFFFFFFFFFFFFFFFFFFFFFFFFFF3C
:10B42000FFFFFFFFFFFFFFFFFFFFFFFFFFFFFFFF2C
:10B43000FFFFFFFFFFFFFFFFFFFFFFFFFFFFFFFF1C
:10B44000FFFFFFFFFFFFFFFFFFFFFFFFFFFFFFFF0C
:10B45000FFFFFFFFFFFFFFFFFFFFFFFFFFFFFFFFFC
:10B46000FFFFFFFFFFFFFFFFFFFFFFFFFFFFFFFFEC
:10B47000FFFFFFFFFFFFFFFFFFFFFFFFFFFFFFFFDC
:10B48000FFFFFFFFFFFFFFFFFFFFFFFFFFFFFFFFCC
:10B49000FFFFFFFFFFFFFFFFFFFFFFFFFFFFFFFFBC
:10B4A000FFFFFFFFFFFFFFFFFFFFFFFFFFFFFFFFAC
:10B4B000FFFFFFFFFFFFFFFFFFFFFFFFFFFFFFFF9C
:10B4C000FFFFFFFFFFFFFFFFFFFFFFFFFFFFFFFF8C
:10B4D000FFFFFFFFFFFFFFFFFFFFFFFFFFFFFFFF7C
:10B4E000FFFFFFFFFFFFFFFFFFFFFFFFFFFFFFFF6C
:10B4F000FFFFFFFFFFFFFFFFFFFFFFFFFFFFFFFF5C
:10B500009DF7E130624921492149214900494249D9
:10B5100090A4FFFFFFFFFFFFFFFFFFFFFFFFFFFF05
:10B52000FFFFFFFFFFFFFFFFFFFFFFFFFFFFFFFF2B
:10B53000FFFFFFFFFFFFFFFFFFFFFFFFFFFFFFFF1B
:10B54000FFFFFFFFFFFFFFFFFFFFFFFFFFFFFFFF0B
:10B55000FFFFFFFFFFFFFFFFFFFFFFFFFFFFFFFFFB
:10B56000FFFFFFFFFFFFFFFFFFFFFFFFFFFFFFFFEB
:10B57000FFFFFFFFFFFFFFFFFFFFFFFFDFFFFFFFFB
:10B58000DEFFDFFFFFFFFFFFFFFFFFFFFFFFFFFF0C
:10B59000FFFFFFFFFFFFFFFFFFFFFFFFFFFFFFFFBB
:10B5A000FFFFFFFFFFFFFFFFFFFFFFFFFFFFFFFFAB
:10B5B000FFFFFFFFFFFFBFFFFFFF3BEF43412149BD
:10B5C00022510149FFFFFFFFFFFFFFFFFFFFFFFFCA
:10B5D000FFFFFFFFFFFFFFFFFFFFFFFFFFFFFFFF7B
:10B5E000FFFFFFFFFFFFFFFFFFFFFFFFFFFFFFFF6B
:10B5F000FFFFFFFFFFFFFFFFFFFFFFFFFFFFFFFF5B
:10B60000FFFFFFFFFFFFFFFFFFFFFFFFFFFFFFFF4A
:10B61000FFFFFFFFFFFFFFFFFFFFFFFFFFFFFFFF3A
:10B62000FFFFFFFFFFFFFFFFFFFFFFFFFFFFFFFF2A
:10B63000FFFFFFFFFFFFFFFFFFFFFFFFFFFFFFFF1A
:10B64000FFFFFFFFFFFFFFFFFFFFFFFFFFFFFFFF0A
:10B65000FFFFFFFFFFFFFFFFFFFFFFFFFFFFFFFFFA
:10B66000FFFFFFFFFFFFFFFFFFFFFFFFFFFFFFFFEA
:10B67000FFFFFFFFFFFFFFFFFFFFFFFFFFFFFFFFDA
:10B68000FFFFFFFFFFFFFFFFFFFFFFFFFFFFFFFFCA
:10B69000FFFFFFFFFFFFFFFFFFFFFFFFFFFFFFFFBA
:10B6A000FFFFFFFFFFFFFFFFFFFFFFFFFFFFFFFFAA
:10B6B000FFFFFFFFFFFFFFFFFFFFFFFFFFFFFFFF9A
:10B6C000FFFFFFFFFFFFFFFFFFFFFFFFFFFFFFFF8A
:10B6D000FFFFFFFFFFFFFFFFFFFFFFFF9EF7423966
:10B6E000214161494149E04021416349FEFFFFFF9B
:10B6F000FFFFFFFFFFFFFFFFFFFFFFFFFFFFFFFF5A
:10B70000FFFFFFFFFFFFFFFFFFFFFFFFFFFFFFFF49
:10B71000FFFFFFFFFFFFFFFFFFFFFFFFFFFFFFFF39
:10B72000FFFFFFFFFFFFFFFFFFFFFFFFFFFFFFFF29
